:020000040800F2
:10000000005000204D7B0008792500087B25000862
:100010007D2500087F2500088125000800000000DC
:100020000000000000000000000000008325000820
:1000300085250008000000008725000889250008A4
:10004000957B0008957B0008957B0008957B000850
:10005000957B0008957B00088D250008A9250008E0
:10006000957B0008C5250008E5250008957B00085C
:10007000957B0008957B0008957B0008957B000820
:10008000957B0008957B0008957B0008957B000810
:10009000957B0008957B0008957B0008957B000800
:1000A000957B0008957B0008957B0008957B0008F0
:1000B0000526000821260008957B0008957B00088E
:1000C000957B0008957B0008957B0008957B0008D0
:1000D000957B000855260008957B0008957B000855
:1000E00075260008957B0008957B0008000000003D
:1000F0000000000000000000000000000000000000
:0C01000000000000000000005FF808F1A3
:1001100010B5054C237833B9044B13B10448AFF341
:1001200000800123237010BD70000020000000003B
:10013000C89A000808B5034B1BB103490348AFF345
:10014000008008BD0000000074000020C89A00086C
:1001500081F0004102E000BF83F0004330B54FEA78
:1001600041044FEA430594EA050F08BF90EA020FE5
:100170001FBF54EA000C55EA020C7FEA645C7FEA78
:10018000655C00F0E2804FEA5454D4EB5555B8BF9B
:100190006D420CDD2C4480EA020281EA030382EA0C
:1001A000000083EA010180EA020281EA0303362D9E
:1001B00088BF30BD11F0004F4FEA01314FF4801C71
:1001C0004CEA113102D0404261EB410113F0004F83
:1001D0004FEA03334CEA133302D0524263EB43033A
:1001E00094EA050F00F0A780A4F10104D5F1200ED8
:1001F0000DDB02FA0EFC22FA05F2801841F1000133
:1002000003FA0EF2801843FA05F359410EE0A5F106
:1002100020050EF1200E012A03FA0EFC28BF4CF037
:10022000020C43FA05F3C01851EBE37101F00045ED
:1002300007D54FF0000EDCF1000C7EEB00006EEBFA
:100240000101B1F5801F1BD3B1F5001F0CD3490884
:100250005FEA30004FEA3C0C04F101044FEA4452DB
:1002600012F5800F80F09A80BCF1004F08BF5FEA62
:10027000500C50F1000041EB045141EA050130BD42
:100280005FEA4C0C404141EB0101013C28BFB1F554
:10029000801FE9D291F0000F04BF01460020B1FA9F
:1002A00081F308BF2033A3F10B03B3F120020CDA72
:1002B0000C3208DD02F1140CC2F10C0201FA0CF050
:1002C00021FA02F10CE002F11402D8BFC2F1200CB5
:1002D00001FA02F120FA0CFCDCBF41EA0C0190406B
:1002E000E41AA2BF01EB0451294330BD6FEA0404B4
:1002F0001F3C1CDA0C340EDC04F11404C4F120029F
:1003000020FA04F001FA02F340EA030021FA04F3B0
:1003100045EA030130BDC4F10C04C4F1200220FA07
:1003200002F001FA04F340EA0300294630BD21FA45
:1003300004F0294630BD94F0000F83F4801306BF0B
:1003400081F480110134013D4EE77FEA645C18BFFF
:100350007FEA655C29D094EA050F08BF90EA020F96
:1003600005D054EA000C04BF1946104630BD91EA8E
:10037000030F1EBF0021002030BD5FEA545C05D191
:100380004000494128BF41F0004130BD14F58004D0
:100390003CBF01F5801130BD01F0004545F0FE4144
:1003A00041F470014FF0000030BD7FEA645C1ABF79
:1003B000194610467FEA655C1CBF0B46024650EAB0
:1003C000013406BF52EA033591EA030F41F40021DC
:1003D00030BD00BF90F0000F04BF0021704730B562
:1003E0004FF4806404F132044FF000054FF0000137
:1003F00050E700BF90F0000F04BF0021704730B5F8
:100400004FF4806404F1320410F0004548BF4042CC
:100410004FF000013EE700BF42004FEAE2014FEA21
:1004200031014FEA02701FBF12F07F4393F07F4FFC
:1004300081F06051704732F07F4208BF704793F0FF
:100440007F4F04BF41F40021704730B54FF4607412
:1004500001F0004521F000411CE700BF50EA010215
:1004600008BF704730B54FF000050AE050EA0102BE
:1004700008BF704730B511F0004502D5404261EB2E
:1004800041014FF4806404F132045FEA915C3FF46F
:10049000D8AE4FF003025FEADC0C18BF03325FEA0C
:1004A000DC0C18BF033202EBDC02C2F1200300FABD
:1004B00003FC20FA02F001FA03FE40EA0E0021FAE2
:1004C00002F11444BDE600BF70B54FF0FF0C4CF4D0
:1004D000E06C1CEA11541DBF1CEA135594EA0C0F82
:1004E00095EA0C0F00F0DEF82C4481EA030621EABD
:1004F0004C5123EA4C5350EA013518BF52EA0335F8
:1005000041F4801143F4801338D0A0FB02CE4FF0A9
:100510000005E1FB02E506F00042E0FB03E54FF0D9
:100520000006E1FB03569CF0000F18BF4EF0010ED1
:10053000A4F1FF04B6F5007F64F5407404D25FEACD
:100540004E0E6D4146EB060642EAC62141EA555180
:100550004FEAC52040EA5E504FEACE2EB4F1FD0CC2
:1005600088BFBCF5E06F1ED8BEF1004F08BF5FEA40
:10057000500E50F1000041EB045170BD06F00046F2
:1005800046EA010140EA020081EA0301B4EB5C049F
:10059000C2BFD4EB0C0541EA045170BD41F4801197
:1005A0004FF0000E013C00F3AB8014F1360FDEBFBC
:1005B000002001F0004170BDC4F10004203C35DA98
:1005C0000C341BDC04F11404C4F1200500FA05F31B
:1005D00020FA04F001FA05F240EA020001F00042BC
:1005E00021F0004110EBD37021FA04F642EB060132
:1005F0005EEA430E08BF20EAD37070BDC4F10C045C
:10060000C4F1200500FA04F320FA05F001FA04F21F
:1006100040EA020001F0004110EBD37041F100010B
:100620005EEA430E08BF20EAD37070BDC4F1200516
:1006300000FA05F24EEA020E20FA04F301FA05F27E
:1006400043EA020321FA04F001F0004121FA04F226
:1006500020EA020000EBD3705EEA430E08BF20EAF6
:10066000D37070BD94F0000F0FD101F00046400030
:1006700041EB010111F4801F08BF013CF7D041EAB2
:10068000060195F0000F18BF704703F000465200B6
:1006900043EB030313F4801F08BF013DF7D043EA87
:1006A0000603704794EA0C0F0CEA135518BF95EA3D
:1006B0000C0F0CD050EA410618BF52EA4306D1D1C4
:1006C00081EA030101F000414FF0000070BD50EAE3
:1006D000410606BF1046194652EA430619D094EA6D
:1006E0000C0F02D150EA013613D195EA0C0F05D157
:1006F00052EA03361CBF104619460AD181EA0301AB
:1007000001F0004141F0FE4141F470014FF0000062
:1007100070BD41F0FE4141F4780170BD70B54FF0FD
:10072000FF0C4CF4E06C1CEA11541DBF1CEA13557D
:1007300094EA0C0F95EA0C0F00F0A7F8A4EB05045F
:1007400081EA030E52EA03354FEA013100F0888056
:100750004FEA03334FF0805545EA131343EA12631F
:100760004FEA022245EA111545EA10654FEA0026D4
:100770000EF000419D4208BF964244F1FD0404F58D
:10078000407402D25B084FEA3202B61A65EB0305E9
:100790005B084FEA32024FF480104FF4002CB6EBA6
:1007A000020E75EB030E22BFB61A754640EA0C0026
:1007B0005B084FEA3202B6EB020E75EB030E22BF66
:1007C000B61A754640EA5C005B084FEA3202B6EBA7
:1007D000020E75EB030E22BFB61A754640EA9C0066
:1007E0005B084FEA3202B6EB020E75EB030E22BF36
:1007F000B61A754640EADC0055EA060E18D04FEAF4
:10080000051545EA16754FEA06164FEAC30343EA93
:1008100052734FEAC2025FEA1C1CC0D111F4801F60
:100820000BD141EA00014FF000004FF0004CB6E759
:1008300011F4801F04BF01430020B4F1FD0C88BFF8
:10084000BCF5E06F3FF6AFAEB5EB030C04BFB6EB03
:10085000020C5FEA500C50F1000041EB045170BDF6
:100860000EF0004E4EEA113114EB5C04C2BFD4EB23
:100870000C0541EA045170BD41F480114FF0000EA7
:10088000013C90E645EA060E8DE60CEA135594EA23
:100890000C0F08BF95EA0C0F3FF43BAF94EA0C0F26
:1008A0000AD150EA01347FF434AF95EA0C0F7FF49B
:1008B00025AF104619462CE795EA0C0F06D152EAEF
:1008C00003353FF4FDAE1046194622E750EA4106D3
:1008D00018BF52EA43067FF4C5AE50EA41047FF4E4
:1008E0000DAF52EA43057FF4EBAE12E74FF0FF3C49
:1008F00006E000BF4FF0010C02E000BF4FF0010C1A
:100900004DF804CD4FEA410C7FEA6C5C4FEA430C92
:1009100018BF7FEA6C5C1BD001B050EA410C0CBFE1
:1009200052EA430C91EA030F02BF90EA020F002043
:10093000704710F1000F91EA030F58BF994208BFAA
:1009400090422CBFD8176FEAE37040F00100704767
:100950004FEA410C7FEA6C5C02D150EA013C07D1BE
:100960004FEA430C7FEA6C5CD6D152EA033CD3D009
:100970005DF8040B704700BF8446104662468C4603
:100980001946634600E000BF01B5FFF7B7FF002836
:1009900048BF10F1000F01BD4DF808EDFFF7F4FF5F
:1009A0000CBF012000205DF808FB00BF4DF808EDEA
:1009B000FFF7EAFF34BF012000205DF808FB00BF0D
:1009C0004DF808EDFFF7E0FF94BF012000205DF82F
:1009D00008FB00BF4DF808EDFFF7CEFF94BF0120E4
:1009E00000205DF808FB00BF4DF808EDFFF7C4FFDD
:1009F00034BF012000205DF808FB00BF4FEA410C26
:100A00007FEA6C5C02D150EA013C0AD14FEA430C08
:100A10007FEA6C5C02D152EA033C02D14FF0000045
:100A200070474FF0010070474FEA410212F5001283
:100A300015D211D56FF47873B3EB625212D94FEA25
:100A4000C12343F0004343EA505311F0004F23FA0F
:100A500002F018BF404270474FF00000704750EA64
:100A6000013005D111F0004008BF6FF00040704721
:100A70004FF00000704700BF4A0011D212F500127B
:100A800011D20DD56FF47873B3EB62520ED44FEAE6
:100A9000C12343F0004343EA505323FA02F0704766
:100AA0004FF00000704750EA013002D14FF0FF30A4
:100AB00070474FF0000070474FEA4102B2F1E04347
:100AC00024BFB3F5001CDCF1FE5C0DD901F0004C35
:100AD0004FEAC0024CEA5070B2F1004F40EB830085
:100AE00008BF20F00100704711F0804F21D113F1B1
:100AF0003872BCBF01F00040704741F480114FEAEA
:100B00005252C2F11802C2F1200C10FA0CF320FA72
:100B100002F018BF40F001004FEAC1234FEAD3238F
:100B200003FA0CFC40EA0C0023FA02F34FEA4303F9
:100B3000CCE77FEA625307D150EA01331EBF4FF082
:100B4000FE4040F44000704701F0004040F0FE409D
:100B500040F40000704700BF80F0004002E000BF9A
:100B600081F0004142001FBF5FEA410392EA030F98
:100B70007FEA226C7FEA236C6AD04FEA1262D2EBE2
:100B80001363C1BFD218414048404140B8BF5B42E7
:100B9000192B88BF704710F0004F40F4000020F080
:100BA0007F4018BF404211F0004F41F4000121F096
:100BB0007F4118BF494292EA030F3FD0A2F10102E0
:100BC00041FA03FC10EB0C00C3F1200301FA03F11E
:100BD00000F0004302D5494260EB4000B0F5000F41
:100BE00013D3B0F1807F06D340084FEA310102F100
:100BF0000102FE2A51D2B1F1004F40EBC25008BFB2
:100C000020F0010040EA03007047490040EB00007B
:100C1000013A28BFB0F5000FEDD2B0FA80FCACF17C
:100C2000080CB2EB0C0200FA0CF0AABF00EBC250A9
:100C300052421843BCBFD0401843704792F0000F97
:100C400081F4000106BF80F400000132013BB5E7EA
:100C50004FEA41037FEA226C18BF7FEA236C21D060
:100C600092EA030F04D092F0000F08BF08467047C5
:100C700090EA010F1CBF0020704712F07F4F04D193
:100C8000400028BF40F00040704712F100723CBFA6
:100C900000F50000704700F0004343F0FE4040F4D0
:100CA000000070477FEA226216BF08467FEA23638E
:100CB0000146420206BF5FEA412390EA010F40F479
:100CC000800070474FF0000304E000BF10F00043C5
:100CD00048BF40425FEA000C08BF704743F09643AC
:100CE00001464FF000001CE050EA010208BF7047C7
:100CF0004FF000030AE000BF50EA010208BF70474E
:100D000011F0004302D5404261EB41015FEA010C62
:100D100002BF84460146002043F0B64308BFA3F15A
:100D20008053A3F50003BCFA8CF2083AA3EBC2533C
:100D300010DB01FA02FC634400FA02FCC2F120025B
:100D4000BCF1004F20FA02F243EB020008BF20F092
:100D50000100704702F1200201FA02FCC2F12002F8
:100D600050EA4C0021FA02F243EB020008BF20EAED
:100D7000DC7070474FF0FF0C1CEAD0521EBF1CEA1B
:100D8000D15392EA0C0F93EA0C0F6FD01A4480EA09
:100D9000010C400218BF5FEA41211ED04FF00063F2
:100DA00043EA501043EA5111A0FB01310CF000401E
:100DB000B1F5000F3EBF490041EAD3715B0040EA44
:100DC000010062F17F02FD2A1DD8B3F1004F40EB14
:100DD000C25008BF20F00100704790F0000F0CF0E7
:100DE000004C08BF49024CEA502040EA51207F3AAB
:100DF000C2BFD2F1FF0340EAC250704740F4000086
:100E00004FF00003013A5DDC12F1190FDCBF00F076
:100E100000407047C2F10002410021FA02F1C2F124
:100E2000200200FA02FC5FEA310040F1000053EAC0
:100E30004C0308BF20EADC70704792F0000F00F00E
:100E4000004C02BF400010F4000F013AF9D040EA14
:100E50000C0093F0000F01F0004C02BF490011F4A8
:100E6000000F013BF9D041EA0C018FE70CEAD153A6
:100E700092EA0C0F18BF93EA0C0F0AD030F0004C26
:100E800018BF31F0004CD8D180EA010000F00040DA
:100E9000704790F0000F17BF90F0004F084691F098
:100EA000000F91F0004F14D092EA0C0F01D14202D2
:100EB0000FD193EA0C0F03D14B0218BF084608D19B
:100EC00080EA010000F0004040F0FE4040F40000E5
:100ED000704740F0FE4040F4400070474FF0FF0C78
:100EE0001CEAD0521EBF1CEAD15392EA0C0F93EABF
:100EF0000C0F69D0A2EB030280EA010C49024FEA11
:100F0000402037D04FF0805343EA111143EA1013C9
:100F10000CF000408B4238BF5B0042F17D024FF481
:100F2000000C8B4224BF5B1A40EA0C00B3EB510F5C
:100F300024BFA3EB510340EA5C00B3EB910F24BF45
:100F4000A3EB910340EA9C00B3EBD10F24BFA3EBCA
:100F5000D10340EADC001B0118BF5FEA1C1CE0D192
:100F6000FD2A3FF650AF8B4240EBC25008BF20F045
:100F7000010070470CF0004C4CEA50207F32C2BF99
:100F8000D2F1FF0340EAC250704740F400004FF036
:100F90000003013A37E792F0000F00F0004C02BF67
:100FA000400010F4000F013AF9D040EA0C0093F031
:100FB000000F01F0004C02BF490011F4000F013B8B
:100FC000F9D041EA0C0195E70CEAD15392EA0C0FF3
:100FD00008D142027FF47DAF93EA0C0F7FF470AF2B
:100FE000084676E793EA0C0F04D14B023FF44CAF6E
:100FF00008466EE730F0004C18BF31F0004CCAD103
:1010000030F000427FF45CAF31F000437FF43CAF3E
:101010005FE700BF4FF0FF3C06E000BF4FF0010C60
:1010200002E000BF4FF0010C4DF804CD4FEA400242
:101030004FEA41037FEA226C18BF7FEA236C11D08C
:1010400001B052EA530C18BF90EA010F58BFB2EB3F
:10105000030088BFC81738BF6FEAE17018BF40F0BF
:10106000010070477FEA226C02D15FEA402C05D173
:101070007FEA236CE4D15FEA412CE1D05DF8040BF8
:10108000704700BF844608466146FFE70FB5FFF78B
:10109000C9FF002848BF10F1000F0FBD4DF808ED43
:1010A000FFF7F4FF0CBF012000205DF808FB00BF34
:1010B0004DF808EDFFF7EAFF34BF012000205DF88E
:1010C00008FB00BF4DF808EDFFF7E0FF94BF0120DB
:1010D00000205DF808FB00BF4DF808EDFFF7D2FFD8
:1010E00094BF012000205DF808FB00BF4DF808ED1B
:1010F000FFF7C8FF34BF012000205DF808FB00BFE8
:101100004FEA40024FEA41037FEA226C02D15FEAD4
:10111000402C08D17FEA236C02D15FEA412C02D136
:101120004FF0000070474FF0010070474FEA400257
:10113000B2F1FE4F0FD34FF09E03B3EB12620DD905
:101140004FEA002343F0004310F0004F23FA02F06F
:1011500018BF404270474FF00000704712F1610F16
:1011600001D1420205D110F0004008BF6FF00040ED
:1011700070474FF00000704742000ED2B2F1FE4FB0
:101180000BD34FF09E03B3EB126209D44FEA002356
:1011900043F0004323FA02F070474FF0000070471D
:1011A00012F1610F01D1420202D14FF0FF307047BE
:1011B0004FF00000704700BF38B50E4B0546187859
:1011C0004FF47A73B3FBF0F30B4A1068B0FBF3F003
:1011D00000F09EF8044658B90F2D09D8024629465A
:1011E0004FF0FF3000F054F82046044B1D6038BD2E
:1011F0000120FCE70000002008000020040000207F
:10120000074A08B51368032043F01003136000F089
:101210002DF80020FFF7D0FF01F08CF9002008BD69
:1012200000200240034A044B11681B780B441360F2
:10123000704700BF8C00002000000020014B1868A0
:10124000704700BF8C00002038B50446FFF7F6FF5A
:101250000546631C1EBF044B1B78E418FFF7EEFF26
:10126000431BA342FAD338BD000000200749030204
:10127000CA6803F4E06322F4E0621204120C134320
:1012800043F0BF6343F40033CB60704700ED00E0F0
:10129000164B30B5DC68C4F30224C4F10703251DE6
:1012A000042B28BF0423062D4FF0FF3598BF0024E0
:1012B00005FA03F388BF033C21EA0303A34005FAC0
:1012C00004F422EA0402002843EA0203ACBF00F15E
:1012D0006040074A4FEA0313DBB2ABBF00F5614041
:1012E00000F00F0080F80033135430BD00ED00E033
:1012F00014ED00E0002808DB0123420900F01F0084
:1013000003FA00F0014B43F82200704700E100E0CF
:101310000138B0F1807F0BD24FF0E023F021054A75
:10132000586182F823100020072298611A617047E3
:101330000120704700ED00E0002809DB012243098D
:1013400000F01F0002FA00F0024A603342F8230066
:10135000704700BF00E100E0114AD36813F01003AA
:1013600005D01049CB6943F00203CB611023D2684A
:10137000500706D50B4943F00403CA6942F0010245
:10138000CA61074AD169C90708D50648C16941F051
:101390000401C161D16921F00101D161D3607047BD
:1013A0000020024090000020064B186910F08000D9
:1013B00007D0054A5A6002F188325A601869C0F3B2
:1013C000C01070470020024023016745034A0020F7
:1013D000136943F080031361704700BF002002408F
:1013E00070B50546FFF72AFF0646114CE368D8079B
:1013F00012D4E368990644BF2023E360E368DA0669
:1014000006D4E369DB0703D4E06810F0040007D0DA
:10141000FFF7A2FF012003E06B1CE7D00DB903200A
:1014200070BDFFF70BFF801BA842DFD9F7E700BFB5
:10143000002002402DE9F84FDFF890901E4699F801
:1014400018300446012B0F4690463DD001234CF244
:10145000503089F81830FFF7C3FF80BB012C03D050
:10146000022C0CBF022404240025AB46DFF860A048
:101470002801C0F12002A0F1200306FA02F228FAA6
:1014800000F0C9F81CB0104326FA03F31843DAF849
:10149000103080B243F00103CAF8103027F815006D
:1014A0004CF25030FFF79CFFDAF8103023F00103C4
:1014B000CAF8103018B90135EBB29C42D8D80023D5
:1014C00089F81830BDE8F88F0220FBE79000002073
:1014D000002002400022064BDA61064B1A6942F0F6
:1014E00002021A6158611A6942F040021A6170479B
:1014F00090000020002002402DE9F74F0022164600
:10150000644F654BDFF894C1DFF894E10D6835FA5C
:1015100006F402D103B0BDE8F08F4FF0010808FADD
:1015200006F805EA080438EA05057BD14D68032D65
:1015300007D8013D022D00F28880DFE805F0969B78
:10154000A100122D00F099806ED8112D00F08F802F
:10155000FF2C98BF82464FF00F0988BF00F1040AA4
:101560004FEA8605DAF8008088BF203D09FA05FBBE
:1015700028EA0B0802FA05F548EA0505CAF8005002
:10158000D1F804A01AF0805F4CD0BD6926F00308A2
:1015900045F00105BD61BD6908F1804805F0010510
:1015A000019508F5803806F0030B019D4FEA8B0B7F
:1015B000D8F8085009FA0BF925EA0909394DA8426B
:1015C00062D005F58065A84260D005F58065A84227
:1015D0005ED005F58065A8420CBF0325042505FAF9
:1015E0000BF545EA0905C8F808501D681AF4803F54
:1015F00014BF2543A5431D605D681AF4003F14BF66
:101600002543A5435D609D681AF4801F14BF2543E0
:10161000A5439D60DD681AF4001F14BF2C4325EA22
:101620000404DC60013671E7DFF87C904D450CD096
:1016300017D8A9F580194D4507D009F570294D45F2
:1016400003D0A9F580194D4582D18A68D2B1012A0B
:1016500008BFC0F810804FF0080218BFC0F814800F
:1016600076E76545F1D07545EEE7CA6870E7CA6868
:1016700004326DE7CA6808326AE7CA680C3267E765
:10168000002265E7042263E70025A8E70125A6E715
:101690000225A4E7001002400004014000003110C0
:1016A0000000321000080140000022100AB1016160
:1016B00070470904FBE77047044A08B551690142C5
:1016C00002D05061FFF7F7FF08BD00BF00040140E2
:1016D00070B5044608B9012070BD90F83D3003F0A4
:1016E000FF021BB980F83C2000F014FE242322687E
:1016F00084F83D30136823F00103136000F0FAFA18
:101700003F4A6368934294BF3E4A3F4A90428CBF2F
:1017100000220122002ADED1394E3C49B342B0FBFF
:10172000F1F188BF4FF49676226800F1FF305568DA
:1017300025F03F0545EA010582BF71434FF47A76F3
:10174000B1FBF6F15560156A013125F03F052943DB
:101750001162D1692A4D21F44F41AB4221F0FF01C2
:1017600032D85B00B0FBF3F0431C40F6FC70034240
:1017700042D0C3F30B030B43D3611168D4E90730A4
:1017800021F0C00103430B4313609168D4E90303C4
:1017900021F40341034321F0FF010B439360D1681F
:1017A000D4E9053021F0FF0103430B43D3601368F4
:1017B000002043F0010313602023206484F83D30AF
:1017C000206384F83E0087E7A56855B903EB43031F
:1017D000B0FBF3F30133C3F30B037BB143F40043DA
:1017E000C9E719256B43B0FBF3F30133C3F30B03D4
:1017F00023B143F44043BEE70423BCE70123BAE727
:10180000A08601007F841E00FF083D0040420F00BB
:101810002DE9F341054638B30368DB0710D42B6884
:101820009F075ED42B68190700F195802B685A0733
:1018300000F1C180E869002840F02C81002029E0F7
:10184000904C636803F00C03042B07D0636803F02B
:101850000C03082B0AD16368DE0307D523689C03B9
:10186000DDD56B68002BDAD1012013E06B68B3F58E
:10187000803F12D1236843F480332360FFF7DEFCFE
:10188000064623689803CAD4FFF7D8FC801B642857
:10189000F7D9032002B0BDE8F0819BB9236823F497
:1018A00080332360236823F480232360FFF7C6FC82
:1018B000064623689903B2D5FFF7C0FC801B642855
:1018C000F7D9E6E7B3F5A02F236803D143F48023CB
:1018D0002360CFE723F480332360236823F480233D
:1018E000CBE7684C636813F00C0F07D0636803F014
:1018F0000C03082B10D16368DA030DD423689B070F
:1019000002D52B69012BAFD123686A6923F0F80354
:1019100043EAC203236085E72A695B4B6AB101226F
:101920001A60FFF78BFC064623689F07ECD4FFF78D
:1019300085FC801B0228F7D9ABE71A60FFF77EFC15
:101940000646236898077FF56DAFFFF777FC801B8D
:101950000228F6D99DE7AA694A4E4B4BE2B1012213
:10196000C3F88024FFF76AFC0446736A9B070DD511
:101970004FF4FA52454B1B68B3FBF2F3019300BFDF
:10198000019B5A1E0192002BF9D14FE7FFF756FC3D
:10199000001B0228E9D97CE7C3F88024FFF74EFC3E
:1019A0000446736A9F077FF541AFFFF747FC001BB2
:1019B0000228F6D96DE7334CE369D80024D4012717
:1019C000E36943F08053E361E36903F080530093DC
:1019D000009B2F4E3368D90518D5EB68012B26D113
:1019E000236A43F001032362FFF728FC41F28838A1
:1019F0000646236A9B073FD5002F3FF41BAFE369E0
:101A000023F08053E36115E70027E2E7336843F4EE
:101A100080733360FFF712FC80463368DA05DCD44C
:101A2000FFF70CFCA0EB08006428F6D931E7ABB94E
:101A3000236A41F2883823F001032362236A23F0EA
:101A400004032362FFF7FAFB0646236A9807D3D5FF
:101A5000FFF7F4FB801B4045F7D91AE7052B236AF3
:101A600003D143F004032362BAE723F001032362A6
:101A7000236A23F00403B6E7FFF7E0FB801B404531
:101A8000B7D906E7001002400000424208000020DB
:101A9000007000402A4C636803F00C03082B3ED012
:101AA0000022284B02281A662CD1FFF7C7FB0646F6
:101AB0002368990120D42B6AB3F5803F05D1626871
:101AC000A96822F400320A436260696A62680B43C3
:101AD00022F474121343012263601A4B1A66FFF753
:101AE000ADFB054623689A013FF5A8AEFFF7A6FBBC
:101AF000401B0228F6D9CCE6FFF7A0FB801B02288A
:101B0000D6D9C6E6FFF79AFB054623689B017FF509
:101B100095AEFFF793FB401B0228F6D9B9E60128E2
:101B20003FF4B8AE63682A6A03F4803191427FF4CF
:101B30009BAE6A6A03F4701393423FF47FAE93E660
:101B4000001002400000424230B5184B87B002AC92
:101B500003F11005224618685968083303C2AB42E6
:101B60001446F7D140F201231149ADF804304B6817
:101B700003F00C02082A17D1C3F3834218326A44D7
:101B8000DB0312F8100C0CD54B680A4AC3F3404330
:101B9000504318336B4413F8143CB0FBF3F007B018
:101BA00030BD054B5843FAE70248F8E7E09A0008D1
:101BB0000010024000127A0000093D002DE9F041BA
:101BC0000D46044610B90120BDE8F081444A13686F
:101BD00003F007038B4228D321688E0730D4CA074D
:101BE00043D43F4A136803F00703AB4265D8226829
:101BF0003C4D12F0040F6CD1130706D56B682269B7
:101C000023F4605343EAC2036B60FFF79DFF6B68E8
:101C1000354AC3F30313D35CD840344B1860344BBC
:101C20001868FFF7C9FA0020CEE7136823F007030E
:101C30000B431360136803F007038B42C3D1CBE758
:101C4000284B11F0040F1EBF5A6842F4E0625A603C
:101C5000080742BF5A6842F460525A605A68A06846
:101C600022F0F00202435A60B9E762681D4E012A71
:101C700033681AD113F4003FA5D0736841F2883855
:101C800023F0030313437360FFF7D8FA0746736822
:101C9000626803F00C03B3EB820FA2D0FFF7CEFA19
:101CA000C01B4045F3D903208EE7022A02D113F06E
:101CB000007FE1E713F0020FDEE7136823F007036C
:101CC0002B431360136803F00703AB427FF47BAF31
:101CD0008DE76B68E16823F4E0630B436B608BE78F
:101CE0000020024000100240F19A00080800002085
:101CF00004000020044B054A5B68C3F30223D35C55
:101D0000034A1068D840704700100240019B000849
:101D1000080000202DE9F04F0D680446C5F30F259B
:101D200095FAA5F24FF00F09B2FA82F24FF00308CC
:101D30004FF0040E4FF0011740F2011C35FA02F08B
:101D400001D1BDE8F08F012393402B4261D0072AD7
:101D500085BFA2F1080307FA03F30CFA02F343F07C
:101D600080631E0E93FAA3FABAFA8AFA93FAA3FBD7
:101D7000BBFA8BFBA0594FEA8A0A09FA0AFA20EA51
:101D80000A0A48684FEA8B0B00FA0BF04AEA000097
:101D9000A051E0684FEA132A9AFAAAFBBBFA8BFB20
:101DA00020EA0A0A086900FA0BF04AEA0000E0603B
:101DB000486820F0080001282BD193FAA3FABAFA58
:101DC0008AFA93FAA3FBBBFA8BFBA0594FEA8A0A63
:101DD00008FA0AFA20EA0A0A88684FEA8B0B00FA26
:101DE0000BF04AEA0000A05193FAA3FABAFA8AFA71
:101DF00093FAA3F3B3FA83F34FEA8A0A0EFA0AFAC4
:101E000020EA0A0A9800CB6803FA00F04AEA0000C8
:101E1000A051013292E70000034B044A5B68C3F310
:101E20000313D35CD840704700100240F19A0008B9
:101E3000034B044A5B68C3F30223D35CD84070476A
:101E400000100240019B0008034B044A5B68C3F387
:101E5000C223D35CD840704700100240019B0008A9
:101E6000094A5368DB0341BF5068084BC0F3404048
:101E7000013048BFB3FBF0F0536858BF0448C3F3C8
:101E800083430233584370470010024000127A0027
:101E900000093D00044B5B6803F00C03082B01D1E3
:101EA000FFF7DEBF014870470010024000127A00C1
:101EB00008B50146FFF7EEFF0860FFF7ADFF486089
:101EC000FFF7B6FF88604868FFF7BEFFC86008BD2F
:101ED0001A4A036890420AD0B0F1804F07D0A2F5A9
:101EE0009432904203D002F58062904215D14A6844
:101EF00023F070031343114A90420AD0B0F1804F8F
:101F000007D0A2F59432904203D002F5806290424D
:101F100003D1CA6823F44073134303608B68C36220
:101F20000B888362054B984204BF0B7C03634369B3
:101F300043F0010343610020704700BF002C0140C3
:101F4000B1F5807F30B500F0908005D801292AD006
:101F5000102958D0012030BDB1F5805FFAD1036A55
:101F6000156823F480530362036A4468C16923F44B
:101F7000005321F4E64141EA0521156943EA05339E
:101F8000556823F4805343EA0533504DA84204BFFB
:101F9000956924F48044D26808BF44EA85144460FB
:101FA000C16102642CE0036A156823F00103036237
:101FB000036A4168846923F0020324F073042C430C
:101FC00015692B43556823F001032B433F4DA8426D
:101FD00012D1556923F0080343EA8503956823F07D
:101FE000040343EA8503956921F480712943D56987
:101FF00021F4007141EA4501D26841608461426385
:1020000003620020A7E7036A156823F01003036248
:10201000036A4168846923F0200324F4E64444EA17
:102020000524156943EA0513556823F0100343EAB4
:102030000513264DA84213D1556923F0800343EAC6
:102040008513956823F0400343EA8513956921F4CD
:10205000806141EA8501D56921F4006141EAC50149
:10206000D268416084618263CAE7036A156823F419
:1020700080730362036A4168C46923F4007324F027
:1020800073042C43156943EA0523556823F48073D0
:1020900043EA05230D4DA84213D1556923F400638B
:1020A00043EA8523956823F4806343EA8523956991
:1020B00021F4805141EA0511D56921F4005141EA2A
:1020C0004511D2684160C461C26399E7002C0140A8
:1020D0008A680B7B13434A6823F4806313430A68BE
:1020E00023F400631343CA8923F4805313430A691A
:1020F00023F4005313434A6923F4404313434364D6
:102100000020704730B5C36804469B040D4685B077
:1021100002D5012005B030BD4B68C968C2680B43C9
:10212000296922F4B0520B4322F00C021343C3601E
:102130000369AA6823F440531343036143696A693E
:1021400023F44073134343616846FFF7B1FE134B1A
:102150009C4219D1039B002BDBD02A68002AD8D0DF
:1021600019214B439200B3FBF2F36422B3FBF2F16B
:1021700002FB11331B013233B3FBF2F303EB011308
:102180009BB20020A360C5E7054B9C4201D1029B96
:10219000E1E7044B9C42BCD1F9E700BF00380140A5
:1021A000004400400048004010222DE9F04F89B063
:1021B0000DEB0200002105F029FD424BDFF80891EC
:1021C0009A69DFF8088142F010029A619A69404FDB
:1021D00002F010020092009A9A69484642F02002EA
:1021E0009A619A694FF4604102F020020192019ACB
:1021F0009A69012542F004029A619A69032602F065
:1022000004020292029A9A694FF0020A42F008020E
:102210009A619B69002203F008030393039BFFF775
:1022200045FA4046002241F6FF61FFF73FFA0022DF
:1022300038462021FFF73AFA4FF4C04300244FF408
:10224000004B484604A9CDE90435CDE906A6FFF7C1
:1022500053F9484604A9CDE904B5CDE90646FFF790
:102260004BF941F6FF63404604A9CDE90435CDE9B9
:102270000646FFF741F941F61B42164B384604A9C2
:10228000CDE904230695FFF737F9404604A9CDE9C7
:1022900004B4CDF818A0FFF72FF92023384604A97D
:1022A000CDE90435CDE90646FFF726F92246214659
:1022B0002820FEF7EDFF2820FFF71CF809B0BDE845
:1022C000F08F00BF001002400010014000080140E4
:1022D000000C01400000211008B50B480B4A0C4BC4
:1022E000C0E9002300234FF48042C0E90233C0E973
:1022F0000423C0E906330362FFF7EAF918B1BDE829
:10230000084000F015B908BDB0000020005400409E
:10231000A086010010B5044686B01022002102A854
:1023200005F074FC2268154B9A4224D1144C4FF4EA
:102330004072A369134843F00803A361A36902A98B
:1023400003F008030093009B1223CDE9022303232B
:102350000593FFF7D1F80C4A536843F0E06343F06C
:1023600002035360E36943F40013E361E36903F498
:1023700000130193019B06B010BD00BF0054004044
:1023800000100240000C01400000014010B5142470
:1023900090B02246002108A805F038FC2246002112
:1023A00001A805F033FC022401224FF48033CDE96B
:1023B0000623CDE90D434FF4E01306A80A920F93CC
:1023C000FFF726FA0F234FF48062CDE90134002392
:1023D000214601A8CDE903320593FFF7EFFB10B0CA
:1023E00010BD00002DE9F041FEF70AFF0024FFF7C1
:1023F000CDFFFFF7D9FE00F097F900F0A1FA00F049
:1024000013FA00F057FAFFF767FF20223D4B2146F1
:10241000DB683D4B062083F825435A602246FEF7D1
:1024200037FF0620FEF766FF224621460720FEF70B
:102430002FFF0720FEF75EFF224621460920FEF708
:1024400027FF0920FEF756FF224621460A20FEF705
:102450001FFF0A20FEF74EFF05F0F2FA05F01CFB05
:1024600000F052FB03F034FE04F024F904F016FCF3
:1024700005F00AF8254B264DC3E900449C60254B26
:102480002C7093F848300024DB0648BF0123204F0E
:10249000214E48BF2B7014220021384695F8008049
:1024A00005F0B4FB46F264432B816423AB721B4BF3
:1024B000C6E900441C701A4B85F800801C70194B4B
:1024C000B4601C70184B1C70184B1C7003F08CFE11
:1024D00000F076FB04F00CF900F0AEFA01F026FCF7
:1024E00002F026FE05F05AFA02F07CFA04F090FBA6
:1024F00002F0FEFC00F07AFB03F02EFA03F0D4F8B1
:10250000C9E700BF00ED00E000E100E01801002095
:1025100004010020FC2F00202401002030010020B5
:10252000340100203201002033010020310100205D
:10253000704700000E4B82B09A6942F001029A6126
:102540009A6902F001020092009ADA6942F0805220
:10255000DA61DB69074A03F080530193019B5368FA
:1025600023F0E06343F00073536002B0704700BF94
:1025700000100240000001407047FEE7FEE7FEE762
:10258000FEE7704770477047FEF74CBE08B5012064
:10259000FFF792F8012004F091FF4022014BC3F8AD
:1025A000802108BD00E100E008B50220FFF784F8B3
:1025B000022004F083FF8022014BC3F8802108BD74
:1025C00000E100E008B50820FFF776F8082004F0E5
:1025D00075FF4FF40072024BC3F8802108BD00BFA5
:1025E00000E100E008B51020FFF766F8102004F0C5
:1025F00065FF4FF48062024BC3F8802108BD00BF25
:1026000000E100E04FF080431A69D20706D56FF071
:1026100001021A6100225A6204F0C0B9704700003A
:102620000A4B1A69D2070FD56FF001021A61002216
:102630005A624FF00052064BC3F88020BFF34F8F11
:10264000BFF36F8F04F098BA704700BF00040040DA
:1026500000E100E010B5064CE3689B0606D5606813
:10266000C0B203F051FD6FF02003236010BD00BF26
:102670000038014008B54FF48060FFF71DF84FF4B3
:102680000060FFF719F84FF48050FFF715F84FF48A
:102690008072034BC3F88421BDE8084001F076BB8B
:1026A00000E100E00A4A08B51168034609B9094982
:1026B00011606946106803448B4206D905F06CFA34
:1026C0000C2303604FF0FF3008BD1360FCE700BF30
:1026D00038010020BC3400200F4B1A6842F0010280
:1026E0001A6059680D4A0A405A601A6822F08472CA
:1026F00022F480321A601A6822F480221A605A6822
:1027000022F4FE025A604FF41F029A604FF00062FA
:10271000034B9A60704700BF001002400000FFF8B2
:1027200000ED00E000207047F0B514249BB0224675
:10273000002102A805F06AFA2022002112A8354ED5
:1027400005F064FA182200210CA805F05FFA224671
:10275000002107A805F05AFAB3692F4D43F400632E
:10276000B361B36902A903F400630193019B41F6CD
:102770001F4328460493FFF7ABFB2B68274F23F03A
:1027800080032B60D7F8183C002443F00803C7F8F7
:10279000183C602312AA01212846CDE91234CDE964
:1027A0001444CDE91644CDE91844FFF7C9FBD7F826
:1027B000183C0CA923F00403C7F8183C6B682846A2
:1027C00023F070036B60AB6823F08003AB604FF4C1
:1027D0000053CDE90C44CDE910340E948DF83C4003
:1027E000ADF83E40FFF774FCB3690D4A43F00403B3
:1027F000B361B36907A903F004030093009B0923A5
:10280000CDE9072302230748CDE90934FFF782FA0F
:102810001BB0F0BD00100240002C01400020014020
:1028200001000104000801407FB51422002101A825
:1028300005F0ECF91D4B01A9DA6942F00102DA61F9
:10284000DB694FF0805203F001030093009B184BAB
:10285000D868A3F54063C0F30220FFF763FF0001CF
:10286000C0B283F81C031A6000234FF08040CDE90A
:102870000233ADF804300493FFF72AFB4FF0804396
:102880001A6822F080021A609A6822F4804222F0CC
:1028900007029A605A6822F070025A609A6822F021
:1028A00080029A6007B05DF804FB00BF0010024090
:1028B00000ED00E010B586B01422002101A805F05B
:1028C000A5F91C4B1C4CDA6901A942F00202DA613D
:1028D000DB694FF0005203F002030093009B174B9B
:1028E000D868A3F54063C0F30220FFF71BFF000187
:1028F000C0B283F81D031A6000232046CDE90233DD
:10290000ADF804300493FFF7E3FA236823F0800363
:102910002360A36823F4804323F00703A360636864
:1029200023F070036360A36823F08003A36006B004
:1029300010BD00BF001002400004004000ED00E0A8
:102940001C2230B500248FB00DEB0200002105F0F1
:102950005DF9CDE90544264B264D9A6902A942F45A
:1029600080429A619A69284602F480420192019A53
:102970009A6942F008029A619B6944F2400203F0AE
:1029800008030093009B0923CDE90223032304934A
:10299000FFF7C0F9042348F280012846CDE902136D
:1029A00002A9FFF7B7F9144A07A9536843F0E06397
:1029B00043F0040353604FF46123CDE907340C2343
:1029C000CDE90944CDE90B340D940C4C2046FFF7BA
:1029D00099FB236923F490432361636923F02A035D
:1029E0006361E36843F40053E3600FB030BD00BFA0
:1029F00000100240000C014000000140003801407E
:102A0000044BD868DB68C0F340305B0448BF40F03B
:102A1000020070470010014010B5064C4FF4005101
:102A2000204605F059F82046BDE810404FF480419B
:102A300005F052B800100140FFF7EEBF38B50C4D5D
:102A400004466B7823B920B9FFF7E6FF00232B7308
:102A500038BD420604D54FF40051064805F03FF852
:102A60002306F3D54FF48041024805F038F8EDE72E
:102A7000040100200010014010B5064B04461B78ED
:102A8000022B06D002F0A4FE2046BDE81040FFF75E
:102A9000D5BF10BD040100202DE9F0414FF6FF77AE
:102AA000FEF782FC1448FEF715FD4CF25030FEF79D
:102AB00097FC124A124D13690F4C23F00203DFF802
:102AC000448013612E4636F8022BBA4204D000230C
:102AD00021460120FEF7AEFC32880435BA4204D00C
:102AE00000230120A11CFEF7A5FC04344445E9D1D4
:102AF000BDE8F041FEF76ABC00FC0008002002407F
:102B00003C010020000001080B4A10B411460B4B99
:102B10000B4813F8014B834202F8014BF9D10B78B3
:102B20000D2B06D04FF48062FF21034810BC05F046
:102B30006DB810BC704700BF3C01002000FC0008CD
:102B400000000108014B185C704700BF3C010020E9
:102B5000014B1954704700BF3C0100200023F0B422
:102B60000A4C8F182518B94204D10444A354F0BC70
:102B7000FFF792BF3BB9DB0911F8016B3344DBB2BD
:102B800005F8016BEFE70123F6E700BF3C010020E9
:102B90000A4B10B5194400230244904211F8014B2E
:102BA00003D11B1B5842584110BD2BB9DB092344EC
:102BB000DBB200F8014BF0E70123F8E73C0100200D
:102BC000002108B54822074805F020F800200649F2
:102BD00003F0EFFB20B9BDE80840072002F050BE2B
:102BE00008BD00BF88050020B40500200149024847
:102BF00004F0C8BC18010020A80500200000000057
:102C00002DE9F04F4C22054600219B4899B004F075
:102C1000FDFF9A4B9A4A1E4603F108071C4603CC57
:102C2000BC4210605160234602F10802F6D12068D0
:102C30004FF0000A1060A379A188937191802B78DE
:102C40000024242B05BF01238B4A5346537002BF37
:102C500082F802A09A4603232746A3468DF8433004
:102C600009940B949DF84330EA5C0792002A33D113
:102C700027B1BBF1000F08BF4FF0020BA00605D52E
:102C80007D4B5A6A7F4B9A4200F3FB87BAF1000FE3
:102C900000F09082E10740F19F82774DEB78012BA5
:102CA0000AD12869FDF7B8FB71A3D3E90023FDF72A
:102CB0000BFCFDF701FF286114F4807F08BF336926
:102CC0006D4D08BF2B632B78042B40F09382600678
:102CD00000F18E821C232BE1079A413A192A00F257
:102CE000BE870133284611AA0DF143018DF8433008
:102CF00001F062FC002800F0B587DDF84480404612
:102D0000FDF78AFB05F092FDFDF7B6FE5FFA80F94C
:102D10004846FDF7DBFF01464046FDF721FF5A49D3
:102D2000FEF728F8FDF778FB05F038FDFDF7A4FE67
:102D3000079B81B2472B20D04D2B00F04181079B90
:102D4000A3F14500152800F29180DFE810F0B301EF
:102D5000CD018F008F00D201DB01E401ED018F0076
:102D6000F2018F00F901FE01030208020D028F003B
:102D70008F008F00190220022702B9F13D0F00F2E7
:102D80008780B9F1250F26D8B9F11E0F6ED8B9F199
:102D9000090F57D8B9F1030F65D8BBF1000F40F008
:102DA00064874FF0020B344AB9F1260F82F8019084
:102DB00040F00081A1F114039BB21E2B56D833487A
:102DC00020FA03F3D80751D50A20B1FBF0F1763988
:102DD000012351709CE0A9F12602172A46D801A3CD
:102DE00053F822F09B2D00086D2E0008AD2F00082F
:102DF0006D2E00086D2E00086D2F00086D2E000846
:102E00006D2E00086D2E00086D2E00086D2E000836
:102E10006D2F00086D2E00086D2E00086D2E000825
:102E2000EF2E0008972F0008972F0008972F000813
:102E3000972F0008972F0008972F00086D2E000885
:102E4000A32F0008A9F10A02142A0FD8DFE802F024
:102E5000480E0E0E0E0E0E68686888880E0E0E0E56
:102E60000E0E480E4800B9F1040F40D014235FE065
:102E700066666666666639403C0500208805002067
:102E80003D050020809698000000C84201041040D3
:102E9000A9F15002D0B20E28E8D80E2AE6D801A334
:102EA00053F822F0A72D00086D2E00086D2E0008A3
:102EB0006D2E00086D2E00086D2E00086D2E000886
:102EC0006D2E00086D2E00086D2E0008392F0008A9
:102ED000392F0008E12E0008552F0008552F000853
:102EE00029B9BBF1000F40F0C0864FF0010BAF4A8B
:102EF00009F0FD001C2882F8009002D0B9F15C0FA7
:102F000056D109B10A29B1D109EB0103137000238D
:102F1000012202FA03F3099A13424DD0152307E068
:102F2000A24AA9F11103537102230029F0D01723FB
:102F3000184619B0BDE8F08F29B99C4AA9F15A0387
:102F400013710323E4E70A2990D1B9F15A0F8DD008
:102F50000423DDE7954AC9F15E0393700523E4E796
:102F6000924AC9F11503D3700623DEE7BBF1000FC7
:102F700040F07B86B9F1310F06D18C4B83F806B057
:102F800008234FF0030BC3E70A297FF46FAF012238
:102F9000864B9A71F4E7854AA9F13603D371092368
:102FA000C3E700297FF462AF0A23B1E70723BCE738
:102FB0000023BAE70123B8E7099A1A43099251E6B8
:102FC0000029B4D1B9F1430F45D8B9F13D0F10D85C
:102FD000B9F1090F37D8B9F1060F4CD8B9F1020F82
:102FE0001CD8B9F1000F3ED0B9F1010F2FD10B233E
:102FF00022E0A9F13E03052B3FF638AF01A252F8BB
:1030000023F000BF953000089F3000086D2E0008A7
:103010006D2E0008A5300008AD300008B9F1060F8C
:103020003FF424AFB9F1040F604A20D0B9F1050F85
:103030001FD0102393720C23012202FA03F3099A82
:103040001342BAD06AE7B9F11E0F7FF40FAF574AA7
:1030500082F80890CBE7B9F1640F7FF407AF012243
:10306000524BDA7319E00322504B1A72BFE7202348
:10307000E0E70023DEE7B9F1080F4C4A06D0B9F1CA
:10308000090F05D0802353720D23D5E74023FAE7BB
:103090000023F8E70122454B1A730F23CCE70222E5
:1030A000424BF9E70122414B5A73F6E701223F4BAD
:1030B0009A73F2E73D4981F84490102101238B4037
:1030C000234240F0D88540F2613040FA01F1CA074E
:1030D00008D5002140460793FDF7EAFF079B00282B
:1030E00040F0CC851C43BDE5304B0021C3F8108077
:1030F000E4E72E4B0121C3F814800B9B43F001033E
:103100000B93DBE7294B0221C3F818800B9B43F09C
:1031100002030B93D2E7254B0321C3F81C800B9BC2
:1031200043F004030B93C9E7204981F82090042160
:10313000C4E74046FDF7FAFF1C4B05215862BDE786
:103140001A4B0621C3F82880B8E7184B1121C3F8A1
:103150004880B3E7154B0721C3F82C80AEE7134B2B
:103160000821C3F83080A9E740461149FDF7BEFFAA
:10317000002840F07D850D4981F8349009219DE7B4
:103180000A4B0A21C3F8388047F0010796E7074B3E
:103190000B21C3F83C8047F002078FE7034B0C215B
:1031A000C3F8408047F0040788E700BF3C050020D3
:1031B00000007F43A64DAB78012B0FD1BBF1020F6E
:1031C0007FF47AAD6B78502B3FF476AD002B3FF453
:1031D00073ADE2073FF570AD1623A9E67378002BB7
:1031E0007FF46AADE3073FF559AD73692B6163E581
:1031F00024F040046B7908933BB1012B43D10C932D
:1032000000230A930223089303E002230C93012373
:103210000A93EB78012B3CD0BBF1030F05D1AB79BE
:10322000012B02D1042F40F02F858A4A12AB07CA26
:1032300083E80700099A864D12F4007F46D195F87D
:103240000080B8F10A0F50D0B8F15C0F00F0B180E7
:10325000BBF1030F40F0DB80B8F11E0F00F02381BB
:10326000B8F1350F00F03581B8F11C0F40F09180B6
:103270000620794903F09DF8A8B3002F40F016818D
:10328000BB46079785E000230C9302230A93012392
:10329000B9E74FF00008DFF8C49147FA08F3DB07FD
:1032A0000CD5D9F80000FDF7B7F867A3D3E90023E0
:1032B000FDF70AF9FDF700FCC9F8000008F1010864
:1032C000B8F1030F09F10409E7D1A5E7E879062869
:1032D00001D91D232CE6B2798242B0D0194603F001
:1032E00068F80028ABD1072322E60FB91A231FE69E
:1032F00014F0500F3FF4EEACA86AFDF78DF805F01E
:1033000095FAFDF7B9FBC0B20628E2D895F820304F
:10331000142B05D0022B7FF4A9AD26063FF5A6ADF0
:1033200024F05004002840D00138C3B207934A4922
:10333000079803F03EF80028D5D04FF0000995F823
:103340002030474D444ED5F844800D9347FA09F29A
:10335000D10715D50D9B726A142B28D1A96B286A49
:103360000E92FDF7FDFB0E9A1146FDF7F9FBB9F140
:10337000020F306004D14146FDF7F2FB344BD861B7
:1033800009F10109B9F1030F06F1040605F104057D
:10339000DCD1DFF8BC8098F80150502D40F0A080BF
:1033A000002F00F0B5801F23C2E5EB79BEE7326045
:1033B000E6E7002F9AD04FF00008294DDFF89C90E7
:1033C0006E6C47FA08F1CA071DD512AB53F82810E6
:1033D000286AFDF7C5FBD9F80010FDF7C1FBB8F16D
:1033E000020FC9F8000004D13146FDF7B9FB184BB4
:1033F000186408F10108B8F1030F05F1040509F19B
:103400000409DED1C5E7A96BC9F80010F1E7002F68
:103410003FF422AF4FF000092B79114D0D936B6CE7
:103420000E4E0E93203547FA09F2D3071AD42A68B4
:10343000326009F10109B9F1030F05F1040506F144
:103440000406F0D108E700BF666666666666394026
:103450003C050020B4050020500500207405002024
:1034600088050020B8F1350FE3D00D9B3268A3B971
:1034700012ABA96953F829000F92FDF773FB0F9A5D
:103480001146FDF76FFBB9F1020F3060D1D10E99F3
:10349000FDF768FB724B1864CBE711462868FDF70F
:1034A00061FB3060C5E707206E49E3E600236C4A04
:1034B0006D4947FA03F0C0075EBF01EB83052D6A33
:1034C00002EB830003F1010358BF4561032BF0D1E8
:1034D0005FE7634B5B78012B7FF65BAF1E2327E52D
:1034E000BBF1020F14D125B9002F08BF4FF0000B1C
:1034F0000EE00021D8F81000FDF7D0FD00287FF481
:103500006BAE032D73D061D8012DEDD0022D6CD0A0
:103510001AF001020ABF24F4487424F0210424F0B4
:103520000104BBF1000F01D024F47C444C4D2B7BF3
:1035300023B163067FF5CEAB24F040046B7B43B12F
:103540004A4B2340002B3FF4C5AB24F4003424F055
:103550005004AB7B2BB114F4403F3FF4BBAB24F4DD
:103560004034EB7B43B1424B2340002B3FF4B2ABE2
:1035700024F4003424F04004002C40F09183CDE981
:1035800015441794002A00F0B181099B33F04903D8
:1035900040F089832B78352B02D0002B40F08383B9
:1035A000314C2F492369227A1693637A15A8134365
:1035B0008DF85C3000F080FB034600287FF4B8AC47
:1035C0002C4A203407CA84E80700B1E405F17403EB
:1035D000DBB2032B9CD8A5F18C03032B98D8DFE832
:1035E00013F05D015B015D015B014AF0040A002FED
:1035F0003FF47CAE0123089A0A9903FA02F28B4049
:103600001A4317420D9200F04283089B089A03F177
:103610000E00154B02F1080153F8211058F8200054
:10362000FDF79EFA0A9B054603F1080103F10E001F
:103630000D4B58F8200053F82110FDF791FA14F0C3
:10364000800906460D9A00F0B180074B0C2209490B
:1036500003F1200004F0CAFA70B9212368E400BF26
:103660003C05002050050020880500205000020085
:10367000400002007405002098F80330012B0CD1A3
:10368000D8F82C00FCF7C8FE8DA3D3E90023FCF783
:103690001BFFFDF711FAC8F82C008F4BD86AFCF716
:1036A000BBFE8046894600228C4BFCF70DFF42464C
:1036B0004B46FCF709FF8046894628462946FDF718
:1036C00059FBFCF7A9FE02460B4640464946FCF76B
:1036D00043FD8046894630463146FDF74BFBFCF7FB
:1036E0009BFE02460B4640464946FCF735FDFDF77A
:1036F000E3F900218046FDF7DBFC002840F0CA8298
:103700004046FCF789FE05F073F981468846284655
:10371000314601F019F8FCF77FFE08F100480B462E
:10372000024641464846FCF7F9FFFDF7C5F96A4BEA
:10373000DFF8A4915B788046032BD9F82C3008BFC2
:1037400000F10048002118460B93FDF7B1FC30B1A1
:103750000B9B08F1004803F10043C9F82C30089B8B
:103760003146043309EB830340460B93FDF702FB1C
:1037700001462846FDF7F4F94FF07C51FDF7FAFABF
:103780000B9B294658600A9B4046043309EB83098A
:10379000FDF7F0FA3146FDF7E5F94FF07C51FDF702
:1037A000E9FA24F08004C9F80400B1E60B9B1A4240
:1037B00000F0738298F8033024F00E04012B4FD0F0
:1037C0000A9BDFF8148103F1040908EB8909D9F891
:1037D00004103046FDF7C4F9089B0B901E1D08EB42
:1037E000860671682846FDF7BBF90B9B194600F069
:1037F000ABFFD9F804100B90706800F0A5FF0B9B8D
:103800000146C8F82C0005461846FDF7A9F920F036
:1038100000463046FCF700FE2BA3D3E90023804688
:103820008946FDF7E1F800283FF472AE4FF07C5175
:103830003046FDF75BFC00287FF40FAF2846FCF70D
:10384000EBFD23A3D3E90023FCF73EFE02460B4623
:1038500040464946FDF7C8F800283FF459AEFCE65B
:10386000DFF87C800B9B43FA09F3DA070CD5D8F814
:103870000000FCF7D1FD12A3D3E90023FCF724FEDE
:10388000FDF71AF9C8F8000009F10109B9F1030FB1
:1038900008F10408E6D193E74AF0100A7235EDB258
:1038A000012D98BF4AF0080A002F3FF41FAD0C22EB
:1038B0000C490D4804F09AF900287FF429AECCE6B3
:1038C00066666666666639407B14AE47E17A743F89
:1038D000FCA9F1D24D62503F3C0500200000104091
:1038E0005005002074050020A8050020A54BA64C1B
:1038F00093F8483013F0020F0ED06B78013B022B87
:1039000088BF4AF0400A002F00F0E680BBF1020FAA
:1039100040F0E2804AF0800A6B6AE361AB78637042
:1039200013B108238DF85C302B692F6B2069394661
:1039300063611593FDF7B2FB0AF0400610B11AF06F
:10394000200F0CD0607A40B11AF0800F05D1002E04
:1039500000F0D680002102F089FF2B6B23610EB9A5
:103960002369169395F83430A87A2376637A8342D4
:1039700004D0169902F07AFFAB7A63729DF85C303E
:10398000627A687A13438DF85C30237A834206D0DA
:10399000FFF772F86B7A002B40F0B48023729DF829
:1039A0005C30227A13438DF85C302B78042B02D1E3
:1039B000A86A00F035FD6B79BBF1030F2371EB783A
:1039C000A3700DD1AB7963710BB900232B642E6CFE
:1039D000606C3146FDF762FB10B9666403F0BAFD16
:1039E000EB79A2799A4207D0A371684B12AA07CA51
:1039F00083E8070003F0AEFD2B79E3702B78262BCC
:103A000000F0B68000F2818003F0FD021C2A00F075
:103A100097800A2B00F082806B78502B23700FD098
:103A2000BBF1020F0CD1012B594E40F0C380304640
:103A300015A900F00DFB96E80700564B83E8070038
:103A40002B7AE37183B101F0C3FEE379032B524B70
:103A500040F0E2801B78022B04D0082003F0BEFD6A
:103A600001F04EFD0023E3712C7B54B1A86AFCF7F2
:103A7000D3FC04F0DBFEFCF7FFFF2146C0B203F0ED
:103A8000B9FF6B7B6BB1A86AFCF7C6FC04F0CEFEF5
:103A9000FCF7F2FF95F82040404A2146C0B203F0FF
:103AA000CDFFAB7B23B13D4995F8440003F0C5FF42
:103AB000EB7B002B3FF43CAAA86AFCF7ADFC04F0BA
:103AC000B5FEFCF7D9FF3549C0B202F0B5FD00F0F4
:103AD00089FF0023FFF72CBA637A102B7FF41CAF09
:103AE00023780AF04002013B022B05D8002A3FF45C
:103AF00013AF4AF0200A0FE7002A7FF40DAFF8E772
:103B0000394628E7227A134348E75C2B35D0662BE9
:103B10004AD0282B80D107201E492BE0204E079841
:103B2000314602F080FBA379079A93427FF474AF89
:103B300096E80700154B83E8070003F00BFD6BE7E1
:103B40009DF85C3043F001038DF85C30BBF1000F51
:103B500003D00F4815A900F07BFA114E15A9304685
:103B600000F076FA96E807000A4B83E8070053E76F
:103B70000620084902F057FB4EE7054A094B07CAE1
:103B8000D9E700BFFC2F002088050020B4050020E5
:103B900074050020A80500200401002084050020F1
:103BA00050050020C00500200023404AA363C2E95D
:103BB0000133C2E733B99DF85C3043F001038DF85F
:103BC0005C3034E7023B012B12D8CAF38003049324
:103BD0000C9B304603930A9B354A0293089B15A918
:103BE0000193EB6A0093A6F1240300F065FA22E743
:103BF0009DF85C30524643F00403304615A98DF819
:103C00005C3000F047FC00283FF415AF01287FF43A
:103C100017AFFEF7EBFF13E70122228046F2644262
:103C20001A81642200269A721B782671022BE67094
:103C3000A67126810FD030461E4902F0BAFB00283B
:103C40003FF451AB03F086FC3046002102F0E2FD68
:103C50003046FEF7F3FE082001F03AFE02E70123AA
:103C6000FFF766B90223FFF763B91823FFF760B9BE
:103C70002623FFF75DB91923FFF75AB90423FFF78D
:103C800057B91B23FFF754B92523FFF751B9202358
:103C9000FFF74EB92223FFF74BB92323FFF748B9AB
:103CA0002423FFF745B91023FFF742B9C0050020D0
:103CB000A8050020B405002038B50B69054603604F
:103CC000037A01F1380443F0040303720F4B93F8B5
:103CD00048309B0610D429460D4D204600F0B8F917
:103CE0002C7884B900F0B0FE68B120232B7003F06B
:103CF00017F802F0CDFD07E0204603F051FC002844
:103D0000E9D00F2400E00024204638BDFC2F00201D
:103D1000040100204FF48072034BC3F88420BFF3EA
:103D20004F8FBFF36F8F704700E100E0034B93F8B4
:103D300048301B0701D4FFF7EDBF7047FC2F002070
:103D40000F4B104A9B6892F848209BB2520658BF0E
:103D500083F4E0538BB10C4A11880B4218BF012049
:103D60005188928808BF00200B4218BF40F0020023
:103D7000134203D040F0040070471846704700BF5C
:103D8000000C0140FC2F0020F69C000808B5094BF0
:103D90001B78012B0CD0084B1B784BB9FFF7D0FFD9
:103DA00030B100F0DDFBBDE80840012003F0A8BD04
:103DB00008BD00BF04010020320100202DE9F04FB2
:103DC000DFF82CB28BB09BF801400190002C40F042
:103DD000C08006234FF0000A4FF000084FF0404922
:103DE00006948DF81830834BCDE9044418689B88FD
:103DF0000290ADF80C30019B2341D8071BD57E4BB8
:103E0000504653F82450FCF707FB064628460F4659
:103E1000FCF702FB42464B46FCF756FB02460B46BC
:103E200030463946FCF7E0FD28B94FF040412846BE
:103E3000FCF7A0FF82460134032CDCD104240126C8
:103E40006E4D6F4FD5F85090394607A803F09AFB96
:103E500000200246804695F849E007AB0AF1004190
:103E6000DDF804C04CFA02FC1CF0010F17D04FF033
:103E7000000C47F822C04EFA02FC01301CF0010F82
:103E8000C0B202D01EB1196003E0002EFBD0C3F80F
:103E900000A00DF1080C3CF812C048EA0C080132F1
:103EA000032A03F10403DBD1FCF70CFF04F0C6FD89
:103EB00001464846ABF80680FCF75CFF04A9049075
:103EC00007A800F08DFE04238BF8043002F028FFD1
:103ED00002F0DEFCDFF82C91A6B1FFF731FF0023E2
:103EE00002AA32F8021B11EA080F06D040FA03FCBE
:103EF0001CF0010F18BF28EA01080133032BF0D191
:103F0000ABF8068002F00CFF99F8003013F0340F84
:103F10005DD099F80030D9065FFA83F802D5062003
:103F200003F0EEFC18F0200F02D0072003F0E8FCAD
:103F3000002E58D1FFF704FF019B184202D0082041
:103F400003F0DEFC304B1B7833B100F009FB01F0CD
:103F5000D7FA0BB0BDE8F08F042003F0C7FC02F0E5
:103F600057FEB5F8540000F0E5FB96F0010632D09C
:103F70002649A86DFCF7FEFE8246D5F84C90013C20
:103F800014F0FF047FF460AF1C4F1D4E019B2341D2
:103F9000DA0713D595F84930A86D2341DB07D7F828
:103FA00000801DD5796AFCF7DDFD4146FCF7E2FE95
:103FB000FCF732FA04F0ACFB46F824000134032C81
:103FC00007F10407E2D100238BF80430C1E718F0B1
:103FD000070F81D1C3E7D5F858A0D5F85090CEE7A8
:103FE00000F10040E1E718F0040FABD00920A7E78B
:103FF00004010020FC9C000820300020FC2F002041
:104000001801002034010020320100200000A040EF
:1040100010B503F0C5FAB8B101230C4C2078E37059
:10402000082808D103F0DAFA01F06AFA63785BB97C
:104030002378002BF8D100F093FA022003F060FC03
:10404000BDE8104001F05CBA10BD00BF04010020C3
:10405000F8B5174F054697F848300C4613F0200F77
:10406000144E04D03378202B04D0FFF7D1FF3378DF
:10407000022B1BD001F044FA7378BBB900F010FD9D
:1040800010B101F081F8F5E72146284600F0A8FDBF
:1040900060B997F848309A0708D5237ADB0605D52A
:1040A00061681020BDE8F84002F0E0BBF8BD00BF39
:1040B000FC2F0020040100202DE9F04F1C468FB09A
:1040C0009DF864509DF86C30924654F82590049306
:1040D00002EB8503CDE90110089352F8251004EB9B
:1040E000850348460993FCF73DFD9DF868600690FE
:1040F0000AEB86030A9304EB860354F826405AF829
:10410000261020460B93FCF72DFD029B0699079085
:1041100053F82500FCF724FD029B0546079953F848
:104120002600FCF71DFD09F10049064629464846D0
:10413000FCF720FE04F10044834631462046FCF79C
:1041400019FE01465846FCF70DFD314683464846A8
:10415000FCF710FE294606462046FCF70BFE0146FA
:104160003046FCF7FDFC5946DDF860809DF8707024
:1041700004F062FC0546002F4ED0FCF74DF99CA3DD
:10418000D3E9002306460F46FCF724FC48B19AA366
:10419000D3E9002330463946FBF7DEFFFCF78CFC01
:1041A00005469B4B4146DE6B4046FCF7DBFC314647
:1041B000FCF7D6FC3146FCF7DDFD04F03FFC8346FE
:1041C0002846FCF729F90022924BFCF77DF90646B8
:1041D00040460F46FCF720F902460B46304639466A
:1041E000FCF772F90746584621F00046FCF714F92F
:1041F0000B46024631463846FCF790FA04F008FABE
:10420000FCF73AFC83B20393CBB9DDE901100FB0A0
:10421000BDE8F04FFFF71CBFFCF7FEF878A3D3E929
:10422000002306460F46FCF7CBFB0028B9D072A34B
:10423000D3E9002330463946FBF790FFAEE7019BF8
:1042400003981E7AFCF742FD3307074609D5019B08
:1042500001461868FCF78EFD019B26F008061860E1
:104260001E7239462846FCF739FE049B049A0AEB75
:1042700083030593049B05465AF82310029B4FF0D5
:10428000000B53F82200FCF76BFC3946FCF726FEC6
:10429000294604902846FCF76DFD01464FF080400A
:1042A000FCF75EFC80462846FCF7B6F856A3D3E937
:1042B0000023FCF709F9064640460F46FCF7ACF828
:1042C0000022554BFBF74AFF02460B463046394663
:1042D000FCF7FAF8FCF7F0FB4FF07C51074640463C
:1042E000FCF748FD01268046039AB3B29A428CD966
:1042F000BBF10B0F41D839464846FCF73BFD414620
:104300000C902046FCF736FD0C9B01461846FCF746
:1043100029FC41460C904846FCF72CFD3946814665
:104320002046FCF727FD01464846FCF719FC0C9B8C
:1043300081461C460BF1010B5FFA8BFB0699484640
:10434000FCF710FC089B079918602046FCF70AFC54
:104350000A9B04991860059B01361868FCF702FC5B
:10436000059B019918605046FFF772FE2B4B5B7856
:10437000002BB9D00FB0BDE8F08F3046FCF7A6FC9B
:104380002946FCF7F7FC814604F0C0FA044648468B
:1043900004F0F4FA099B21461A680B9B02F1004BCA
:1043A0001A680D9058460C92FCF7E4FC0C9A0D9B91
:1043B000814619461046FCF7DDFC01464846FCF7ED
:1043C000D1FB0D9B814619465846FCF7D3FC0C9A4D
:1043D000834621461046FCF7CDFC01465846FCF7C3
:1043E000BFFB4FF0000B0446A8E700BFAFF300800F
:1043F0008DEDB5A0F7C6A0BE182D4454FB21194081
:104400008DEDB5A0F7C6A03E4BDA7D5C5555C53F96
:10441000FC2F00200000E03F0000104004010020BD
:1044200010B5074B04461B78022B07D001F0D0F9DA
:104430002046BDE81040002100F058B910BD00BF73
:104440000401002010B50446FFF764FCBCB120460F
:10445000FFF7B4FC01F054F80C4B5B78A3B9FEF7FE
:10446000C5FB00F045FD4FF4E052094B28205A618E
:10447000FCF762FFBDE810402820FCF73BBF04209A
:10448000FFF79CFC0320E3E710BD00BF0401002000
:10449000000401402DE9F0412D4C064623780F46DB
:1044A000022B154651D001F093F994F80180B8F130
:1044B000000F02D00220BDE8F081C5F3C00084F8EF
:1044C000058000F01FFE00F037FE40B1042003F02D
:1044D00017FA01F015F8404600F014FEEAE73046FE
:1044E0003946FFF7B5FD01231A4E0220337003F061
:1044F00075F801F005F86378002BDBD12378002BE9
:10450000F7D13378012B1DD1EB0617D5124B134A87
:1045100007CA83E807000020307000F0F3FD00F0C8
:10452000EFFF02F075FB00F05DFA00F0E1FC01F036
:10453000E1FA6079003818BF0120BCE7052003F0DC
:10454000DFF9E8E701236371E5E70020B3E700BF87
:104550000401002030010020240100201801002067
:1045600008B5114B1B78DB061DD4102003F036F87C
:1045700002F0EAF8FEF750FA0C4B1A781B7902F0B9
:104580002C0103F006030B430DD0042A09D1084B7C
:104590001B7813B9062003F0B3F9BDE8084002F018
:1045A000BBB90320F7E708BD340100200401002057
:1045B00032010020000000002DE9F74F0B789246F1
:1045C000C218C35C06462D2B0F4619D14FF0010BC4
:1045D0005378951C00210A460C460846303BDBB256
:1045E000092B1AD80132D2B2082A11D809B1013CDC
:1045F00064B200EB800003EB400015F8013BEDE7EF
:104600002B2B4FF0000B0ABF5378551C951CE1E78C
:104610000029F2D1013464B2EFE7FE2B02D109B9CF
:104620000121EAE72AB3FCF74DFB00210190FCF7DA
:1046300035FD019B88B90FF28009D9E90089621C18
:104640001BDB27D11846FBF7E7FE1DA3D3E90023A8
:10465000FBF73AFFFCF730FA0346BBF1000F02D03C
:1046600003F1004003460122AD1B013DCAF80030B2
:104670003D70104603B0BDE8F08F1846FBF7CCFE46
:104680004B464246FBF720FFFCF716FA023403467E
:1046900064B2D4E7002CE0D0DFF82C801846414605
:1046A000FCF768FB013CE2B2034664B2002AF5D194
:1046B000D3E700BFAFF300807B14AE47E17A843FBD
:1046C0009A9999999999B93F000020414FF47A72CB
:1046D000054B1B68B3FBF2F300229A4200D17047EE
:1046E00000BF0132F9E700BF0800002070B50D4699
:1046F0000E49FCF73FFBFBF78FFE03F009FFFCF7C9
:10470000BBF90B4E84B27CB173786BB93DB900F044
:10471000F7FE3220013CFCF797FDA4B2F3E700F06E
:104720003DFDB3789B07F4D570BD00BF0000A041EC
:1047300004010020014608B501B908BD0120013976
:10474000FFF7C4FF89B2F7E738B50D460146FCF71D
:1047500011FB294604462846FCF70CFB014620467F
:10476000FCF700FABDE8384004F068B92DE9F843D9
:1047700000250446A946061F00F1080856F8047FE4
:1047800049463846FCF78AFC40B939463846FCF7BA
:10479000F1FA01462846FCF7E5F905464645EDD114
:1047A000284604F04BF9064601464FF07E50FCF7D0
:1047B00095FB054601462068FCF7DCFA2946206097
:1047C0006068FCF7D7FA29466060A068FCF7D2FA67
:1047D000A0603046BDE8F8832DE9F84307468846D7
:1047E00000244FF000090D4E58F824504946284641
:1047F000FCF754FC60B9294657F82400FCF76EFB1F
:1048000020F0004531462846FCF770FC00B92E46E2
:104810000134032CE8D13046BDE8F883FFFF7F7FE9
:104820002DE9F04F614B624F1E7897F80090002EF3
:1048300008BFC826013EF6B2B14585B03ED034244B
:104840005C4D04FB065ADAF81C10DAF818B008467A
:10485000FCF788F9DAF82010FCF78CFA824601465A
:104860005846FCF725FC00B9D346002E14BF33464A
:10487000C82304FB0654013B5FFA83F8C145C4F822
:1048800014B01ED14C4B1B784B4501D102F030FACD
:104890003E784FF0340A741CE4B2C82C08BF0024E0
:1048A0004FF00008414B0AFB06591B780193019B0E
:1048B000A34241D1B8F1000F00D03E7005B0BDE871
:1048C000F08F4FF03409B8F1000FC246A34609FB40
:1048D000085408BF4FF0C80808F1FF335FFA83F8A7
:1048E000354B1A78424501D102F002FA09FB0A5A07
:1048F000DAF81860DAF814003146FCF7CFFBA0B9FB
:10490000DAF81C100846FCF72DF9DAF82010FCF74D
:1049100031FADBF81410FCF725F9834601463046DE
:10492000FCF7E4FB28B1CAF814B03A784245CAD182
:10493000AEE7CAF81460F8E70AFB045BD9F8142064
:10494000DBF814301046194603930292FCF7B0FBD3
:10495000C0B1D9F81C100846FCF704F9D9F82010AA
:10496000FCF708FA029A1146FCF7FCF8039B814613
:1049700001461846FCF7BAFB20B126464FF0010865
:10498000CBF814900AFB045399695869FCF786FB2D
:10499000002818BF264604F10104E4B218BF4FF006
:1049A0000108C82C08BF0024D94680E7702E0020DB
:1049B000712E0020D0050020722E0020002301213E
:1049C000044A1370044A1370044A1170044A1370A5
:1049D000704700BF722E0020702E0020732E002022
:1049E000712E002008B51C220021034803F00EF9A7
:1049F000BDE80840FFF7E2BF742E002010B509495A
:104A0000094B0A781B7893420AD0531CDBB2C82B9F
:104A100008BF002305480B700478944208BF037058
:104A200010BD00BF722E0020702E0020712E0020BD
:104A30003420034B1A78034B00FB0230704700BF51
:104A4000702E0020D0050020054B064A1B781278F6
:104A50009A421DBF3422044802FB03000020704725
:104A6000722E0020702E0020D0050020094B0A4A2B
:104A70001B7812780133DBB2C82B08BF00239A429F
:104A80001FBF3421054A01FB0323586908BF0020DA
:104A9000704700BF722E0020702E0020D00500202D
:104AA000034B1878034B1B78C31A58425841704780
:104AB000722E0020732E0020F8B5437C0546DA07DD
:104AC000C46A20D5244B587AFBF794FC20A3D3E981
:104AD0000023FBF7F9FC064620460F46FBF79CFC3B
:104AE00002460B4630463946FBF7EEFCFBF7E4FF87
:104AF00004464FF07E512046FCF7F8FA08B94FF013
:104B00007E542046F8BD5B0716D4134B187AFBF78A
:104B100071FC0FA3D3E90023FBF7D6FC0646204621
:104B20000F46FBF779FC02460B4630463946FBF749
:104B3000CBFCFBF7C1FF0446AD6A21462846FCF7D3
:104B4000B7FA0028D5D02C46D3E700BFAFF30080DA
:104B50007B14AE47E17A843F040100202DE9F04741
:104B60003426194BDFF864901C78194B194F93F8D1
:104B70000080A04504D1184BC3F81890BDE8F08719
:104B800006FB0470FFF798FF054601464846FCF710
:104B90008FFAB0B149464846FCF7ECF806FB0479B9
:104BA000D9F824A0C9F818005146FCF79FFA08B1BB
:104BB000C9F818A00134E4B2C82C08BF0024A946E3
:104BC000D7E729462846E7E7722E0020FFFF7F7FC0
:104BD000702E0020D0050020742E00200000000060
:104BE00034222DE9F04F89464FF034080027B24BAC
:104BF000B24C1D7891B002FB05430021029018468B
:104C0000009303F003F899F80830009A0099537460
:104C1000D9F8042013F0020F0A6314BFA84AA94A66
:104C200007AB08FB054807CA83E80700009BDFF8CD
:104C300098A20193029BDAF8000053F82710FCF7C2
:104C400099F8FBF7E9FB03F063FD07AA52F8272068
:104C500004AB43F82700801A019B80EAE076A6EBBC
:104C6000E07643F8046BD8F80C200193964238BFE5
:104C70001646C8F80C60FCF729F85AF8041BFCF734
:104C80002DF90DF1280B00214BF82700FCF710FA45
:104C900038B18E4A32F8171098F810200A4388F875
:104CA00010200137032FC5D1002E00F0F6803426E6
:104CB0005846FFF75BFD06FB0546594630628448BF
:104CC000FFF78AFD5946F0618248FFF785FD777C42
:104CD000B062FB0750D5F062774B4FF000081A78AE
:104CE0007D4B1B789A4201D0BA074ED5342303FB83
:104CF0000543C3F81480C3F82480342303FB054321
:104D00005B7C9B0736D40098FFF7D6FEDFF8B481B2
:104D10000146D8F8189006464846FCF7C9F94746B8
:104D2000002800F0B78049464846FCF723F83423B2
:104D300003FB0544656A0146A0612846FCF7B8F903
:104D400000B1A561654B0AAA07CAC8F8186083E8D4
:104D5000070004AB93E8070087E80700604A56495C
:104D600013780B700133DBB2C82B08BF002313701C
:104D7000FFF756FD012091E0D9F800103807F162E5
:104D8000AAD5306AFBF7F6FFA5E703210DAF46462B
:104D9000B946524A0AAB019152F804BB53F804AB2E
:104DA0005846514603920293FBF7E4FF0146304612
:104DB000FBF7D6FE594606465046FBF7D1FE019B4F
:104DC00047F8040B591E11F0FF030193DDE902328D
:104DD000E2D13046FBF720FB33A3D3E9002306469C
:104DE0000F46FBF701FE18B1342303FB054382E7AE
:104DF00030462FA3D3E900233946FBF7D7FD28B16E
:104E0000342303FB0543374A5A6276E74846FFF7E7
:104E1000ADFC49462E48FFF7DFFC32463B46804654
:104E200031490020FBF798F90022304BFBF74CFB8F
:104E3000FBF742FE03F002FE8146234B4046996B8E
:104E4000FBF798FF4946FBF795FFFBF7E5FA0646A7
:104E500048460F46FBF7E0FA02460B46002022497F
:104E6000FBF77AF902460B4630463946FBF756FC0B
:104E70000022002306460F46FBF798FD40B9304656
:104E80003946FBF719FE342303FB0543586234E728
:104E90000020F8E73146304647E7304611B0BDE81C
:104EA000F08F00BFAFF30080E90B21E7FDFFEF3F7C
:104EB000E90B21E7FDFFEFBF702E0020D005002099
:104EC00018010020742E0020FC2F0020F09C000808
:104ED000F02F002008300020722E0020802E0020AD
:104EE000732E0020FFFF7F7F0000F03F0000E03FB7
:104EF000044A054B116819605168926859609A60BC
:104F0000704700BF18010020742E0020054A064B90
:104F100010781B7883422CBF393800F1FF30C01A5B
:104F2000C0B27047722E0020702E002008B501F02C
:104F3000DFFE044B1A78044B1A70BDE80840FFF7F7
:104F40006FBC00BF722E0020712E002010B5441ED1
:104F500014F8010F00B910BD01F0BBF8F8E76328A1
:104F600038B51DD90A22B0FBF2F302FB1300303032
:104F7000C4B2D8B20A22B0FBF2F302FB1300303005
:104F8000C5B2D8B23030C0B201F0A3F815B128468E
:104F900001F09FF854B12046BDE8384001F099B8BF
:104FA00009284FF00004E5D82546EBE738BD00009E
:104FB000F0B50E4685B000210446FCF779F820B123
:104FC0002D2001F086F804F1004435462B4F012DC9
:104FD00033D87308C3EBC31306EB4303DBB223B12F
:104FE00020462749FBF7C6FE04464FF07C51204679
:104FF000FBF7B8FDFCF79AF800230A22DDB2013373
:1050000018BB741BE4B2AE4238BF002422462C44C5
:1050100030210DEB0500E4B202F0F8FDB44207D1F7
:10502000302206F11003741C6B44E4B203F8102C18
:10503000651E6D44B4B905B0F0BD20463946FBF796
:1050400099FE023D0446EDB2C1E705F110010DEBFA
:105050000105B0FBF2F102FB1100303005F8100C35
:105060000846CBE7B44202D12E2001F032F815F801
:105070000109013C01F02DF8E4B2DBE70000C84271
:10508000000020410000000008B50D4B93F84830A7
:10509000DB070DD5FBF7C0F907A3D3E90023FBF726
:1050A00013FAFBF709FD0421BDE80840FFF780BFB4
:1050B0000321F9E7AFF300806568E1575128A43F69
:1050C000FC2F00200000000008B50D4B93F848109D
:1050D00011F0010109D0FBF79FF907A3D3E90023E1
:1050E000FBF7F2F9FBF7E8FC0121BDE80840FFF708
:1050F0005FBF00BFAFF300806568E1575128A43F50
:10510000FC2F00200022084B1A80084A92F9482000
:10511000002AA4BF4FF400421A8018B11A8882F402
:1051200000421A80704700BF902E0020FC2F002004
:105130000020FFF7E7BF0000044B054A9B6810887A
:1051400003F400431B1A58425841704700080140BD
:10515000902E002008B5FFF7EFFF60B10022064B4C
:105160001A70064B064A07CA83E80700054A1378F7
:1051700043F04003137008BD3001002024010020DB
:10518000180100203401002008B5FFF75DFC20B1B4
:10519000BDE80840022002F021BA08BDF8B5394B3D
:1051A000394C1B78394E03F0FF054BB101272846D7
:1051B000013D277000F07AFBBD420CD902F0AAFB3A
:1051C000337803F0FF05002B00F0BC80EA060CD515
:1051D00001236370F8BD384600F07AFB102002F01E
:1051E00085FB3378D906FCD5E8E7EB0704D500F05A
:1051F000E7FD012002F07AFB15F0E80F5CD0237880
:105200006EB29F074AD113F0280F10D0A37813F085
:10521000C00F0CD101F06CFD022323712378202BE9
:1052200005D1002EA2BFA37863F07F03A37023787B
:105230000BB90122A270680605D599065EBFA27857
:1052400042F04002A2702A0704D513F0E00F04BF19
:1052500010232370AB0621D5062000F039FB94F90A
:105260000220A378002A15DB2278402A10D11F07DC
:1052700004D523F01C0343F00203A37040232370E2
:1052800008E000BF320100200401002034010020AA
:10529000802AF3D1A37843F02003A370002E08DA0C
:1052A0002378012B02BFA37843F00503A37080236A
:1052B0002370E82002F01AFBA80723D515F0680F29
:1052C0001DD12378402B07D1A37813F0200203D1FE
:1052D000D90640F1D48022702378002B00F0D580CD
:1052E000DF060CD5A278D60709D5102B40F0CD806B
:1052F000E37A002B00F0C98043F00803E372022038
:1053000002F0F4FA68071DD5227894F9023012F001
:10531000D00F00F0CF80E278002A40F0CB80002B45
:10532000C0F2CA80FFF702FE2379990748BFA2782E
:1053300023F0060344BF42F00102A270237104204F
:1053400002F0D4FA6B4B1B7803F0FF05002B38D02A
:1053500002F0FCFA207A15F0010F0CBF034664231B
:10536000AA0744BF0A33DBB26F0744BF0A3BDBB274
:105370002E0744BF0133DBB2E90644BF03F1FF331C
:10538000DBB2C82B28BFC8230A2B38BF0A23617A97
:1053900015F0200F14BF64220A4615F0400F18BF05
:1053A000322215F0800F18BF1922984201D18A428B
:1053B00007D02372002362722373FFF7CFFBFFF73E
:1053C000B5FD4D4B1B7803F0FF06002B4ED002F0CD
:1053D000C5FAA27A16F0010F0CBF13466423B70773
:1053E00044BF0A33DBB2750744BF0A3BDBB2300768
:1053F00044BF0133DBB2F10644BF03F1FF33DBB23C
:10540000C82B28BFC8230A2B38BF0A239A4206D0CC
:10541000A37200232279237342F008022271B70697
:10542000227806D5102A04D1E37A002B5DD102231D
:10543000E37216F0C00F19D012B112F0180F15D088
:105440002E4F30063D7A05D529064CBF05F07F0565
:1054500045F08005720605D56B064CBF05F0BF050B
:1054600045F040052846FDF7E9FA3D72237813F030
:10547000FC0F3FF4AFAEBDE8F84001F051BC5A0755
:1054800044BF43F00803A37026E700232371FFF70E
:10549000DBFA58B1A37813F0400307D1A3700823B7
:1054A000237001F03DFC01F0F3F928E70023A3701D
:1054B000237024E7002B09DA00232371FFF792FA07
:1054C00001F0A6FBFDF792FBFFF712FDA37813F0A6
:1054D00020021FBF03F07F0343F00103A3704023AA
:1054E0000ABFA2702370227029E7DD07A1D543F01F
:1054F00004039DE7330100203101002088050020CE
:105500002DE9F84F654CFFF749FEA378002B48D0F2
:10551000FFF79AFA90BB624B5D7A1A7A1E691543BF
:10552000604F97F848309B0702D5202002F004FA1C
:105530004FF000084FF0814AA37893B394F801909C
:10554000B9F1000F2DD1D80715D5217811F0C00081
:105550006AD013F0040B14D14146584684F80BB0BE
:1055600001F058F95846FDF769FAA37823F00203D1
:1055700043F00403A370FFF711FEDDE7457C066BE3
:10558000CEE7802912D10B2000F0A2F90021484675
:1055900001F040F94846FDF751FA01F0BDF9637892
:1055A0000BB1BDE8F88FFFF7F9FDF8E7402906D108
:1055B00001F0B0FF18B9A37823F02003A370A378FB
:1055C0001907D8D5DFF8D8B09BF809204AB19A0757
:1055D00007D497F848309B071CD5237943F008037C
:1055E00023719BF808305BB1A378980708D405F0C5
:1055F0004000FDF723FA01214FF07E50FFF776F8C7
:10560000A3789907B7D443F010030220A37001F0E8
:10561000E5FFB0E7314605F0300001F0FBF801216D
:105620005046FFF763F8DCE7E37A4BB39A0708D5F7
:105630001B4B5B7AE3B1414601F0ECF80123E372C6
:1056400099E713F00C0F96D0154B5B7A53B10A20F3
:1056500000F03EF997F8483099070BD5237943F0CD
:1056600008032371E37A1A0702D5022001F0B6FF7E
:105670000023E4E7314605F0300001F0CBF8F1E714
:1056800023791B077FF577AF314605F0300001F035
:10569000C1F8237923F0080323716CE7040100208B
:1056A00088050020FC2F00202DE9F041444B454E99
:1056B00093F8483013F0080F07D0FEF741FB20B1F4
:1056C00001230720337000F003F9337813F08103CE
:1056D00014D0022000F0FCF801233370002425468A
:1056E000394F00F0F9FCFF2817D1FFF74DFDFFF708
:1056F00007FF7378002BF4D0BDE8F081337001F020
:1057000009FF30B1314A137843F020031370FFF7DB
:10571000F7FE2D4801F004FFE0E70A2801D00D282C
:105720002AD1FFF7EDFE96F80180B8F1000FE3D122
:1057300015F0010507F8048005D00B2000F0A0F853
:1057400044464546CDE73C781CB9204600F098F821
:10575000C7E7242C06D1384601F04AFF00F090F844
:105760002C46BEE7347814F0210401D00920F5E777
:105770003846FDF745FAE9E735B12928B1D1AB073D
:10578000AFD505F0FD05ACE72028AAD92F28A8D071
:1057900028280FD03B280FD04E2C0FD82346A0F13D
:1057A0006102D2B2192A04F1010498BF2038E4B290
:1057B000F85496E7022594E7042592E7012590E73F
:1057C000FC2F002004010020922E00203401002034
:1057D00010B5FFF7D9FC064CFFF792FE637833B99A
:1057E000FFF732F90028F7D12378082BF4D010BD49
:1057F000040100200148FFF7A9BB00BFD89B0008A7
:1058000008B55D2000F065FCBDE80840FFF7F2BF79
:1058100010B504460068FFF737FC2C2000F059FC57
:105820006068FFF731FC2C2000F053FCA068BDE855
:105830001040FFF729BC10B50446242000F049FCB5
:105840002046FFF78CFBBDE810403D2000F041BC36
:1058500010B50C46FFF7EFFFE0B2FFF780FBBDE8A5
:105860001040FFF7C7BF38B50C461546FFF7E3FFFA
:1058700029462046FFF79CFBBDE83840FFF7BABF3A
:1058800010B5044620B9BDE810400648FFF75EBBDE
:105890000548FFF75BFB2046FFF761FBBDE81040C2
:1058A000FFF7A8BF099B00080E9B000810B504462F
:1058B0000648FFF74BFB2046FFF751FBFFF79AFF27
:1058C000BDE810404FF4FA70FEF734BF159B000896
:1058D00010B504461448FFF739FB601E0A280AD8A1
:1058E000DFE800F0060D0F11131517191B1D1F001F
:1058F0000E48FFF72BFBBDE81040FFF781BF0C48B7
:10590000F7E70C48F5E70C48F3E70C48F1E70C48DB
:10591000EFE70C48EDE70C48EBE70C48E9E70C48EB
:10592000E7E70C48E5E700BF1C9B0008229B000846
:10593000349B0008489B00085A9B0008629B0008A3
:105940006B9B0008769B0008839B00088B9B0008DC
:105950009E9B0008B09B00080148FFF7F7BA00BF04
:10596000B99B00080148FFF7F1BA00BFDB9B0008B4
:105970002DE9F0475D4C03220020216BFFF773FFF8
:10598000012094F83610FFF763FF022094F83410DA
:10599000FFF75EFF032094F83510FFF759FF94F8E6
:1059A00048100420C1F38001FFF752FF94F848101B
:1059B0000520C1F38011FFF74BFF94F94810062032
:1059C000C90FFFF745FF0A2094F83710FFF740FF93
:1059D00003220B20A16BFFF746FF03220C20E16B93
:1059E000FFF741FF94F848100D2001F00101FFF787
:1059F0002FFF94F848101420C1F34011FFF728FF3F
:105A000094F848101520C1F3C001FFF721FF94F866
:105A100048101620C1F30011FFF71AFF172094F861
:105A20004910FFF715FF03221820E16CFFF71BFF59
:105A300003221920216DFFF716FF1A20B4F8541025
:105A4000FFF706FF03221B20A16DFFF70CFF0022CA
:105A50001E20216CFFF707FF00221F20616CFFF75B
:105A600002FF94F848102020C1F34001FFF7F0FE38
:105A700003222820E16DFFF7F6FE322094F8601033
:105A8000FFF7E6FE00276425DFF864A02C4605F149
:105A90000308164E5FFA87F95FFA88F8022F19D0CB
:105AA000B9F1030F1DD00322B9F1010F14BF316802
:105AB000F16820460134E4B2FFF7D5FE444506F113
:105AC0000406EBD10A35EDB28C2D07F10107DDD1CB
:105AD000BDE8F0875146B069FBF700FA03220146A2
